:02000000632972
:10000600710DF80DF90D7408F8027508031C750FCB
:10001600F902F00DF10D0F30FC00710DF80DF90D20
:100026007408701C1C28F8027508031C750FF90269
:100036002128F80775080318750FF907F00DF10D5B
:10004600FC0B102870182D287408F807750803187B
:08005600750FF9070000080016
:10005E00831203137408003A031D3E287508003AF4
:10006E00031D3E28FF30F0007F30F10097288312E9
:10007E000313FD01F901F80171087004031900342E
:10008E0071087506FA00FA1BFD09FB01F51F5428CD
:10009E00F409F509F40A0319F50AF11F5B28F009B2
:1000AE00F109F00A0319F10A71087504FA00FA1B36
:1000BE00702803207B188328FD1F0034F009F109F6
:1000CE00F00A0319F10AF809F909F80A0319F90AED
:1000DE000034F51F7F28F11B7B287108F90070088A
:1000EE00F800F101F0016328F101F001F00A00348B
:1000FE00F109F009FB0A6028F80A0319F90A7408D5
:10010E007802031D632875087902031D6328F9011F
:10011E00F801F00A0319F10AF11F63280000FF34F9
:02012E000800C7
:0E0130008312031331088A0030088200080091
:10013E000A3083120313F4000030F5003608F00085
:10014E003708F1002F207008B8007108B9000A3086
:10015E00F4000030F5003608F0003708F1002F20CB
:10016E007808F0007908F1007008BA007108BB0039
:10017E00BC01BD01BC01BD018030F00080303D06E8
:10018E007002031DCC283C08083C031CF2280714FF
:10019E003808263E8400000886001A30FC00F8302D
:1001AE00FD00FD0BD828FC0BD82800000710871483
:1001BE003A08263E8400000886001A30FC00F8300B
:1001CE00FD00FD0BE828FC0BE82800008710BC0A98
:0801DE000319BD0AC328080043
:1001E6008312031387113408B6003508B7009F2021
:1001F6000130B2000030B3008030F00080303306AA
:100206007002031D08293208643C031C15290716D1
:100216003408B6003508B7009F200A30B207031825
:10022600B30AFF2807123408B6003508B7009F2026
:100236000130B2000030B3008030F0008030330669
:100246007002031D28293208643C031C35298716D1
:100256003408B6003508B7009F200A30B2070318E5
:10026600B30A1F2987123408B6003508B7009F2045
:100276000130B2000030B3008030F0008030330629
:100286007002031D48293208643C031C5529871552
:100296003408B6003508B7009F200A30B2070318A5
:0802A600B30A3F29F328080008
:1002AE0098208A110A128000840AB00A0319B10A32
:0802BE00F003031D572908009D
:1002C60083120313A001A101A201A301A401A501A8
:1002D600C030A600F930A700A430A800B030A900AD
:1002E6009930AA009230AB008230AC00F830AD00F5
:1002F6008030AE009030AF008316860187018312EE
:100306008715A001A101A201A301A401A501881ED0
:10031600AA292008B6002108B7009F20081D9D299C
:10032600081D9D29A00A0319A10A2008B600210864
:10033600B7009F20881DAA29881DAA290130A0027E
:10034600031CA1032008B6002108B7009F20881AC5
:10035600CA292208B6002308B7009F20081DBD2918
:10036600081DBD29A20A0319A30A2208B6002308FC
:10037600B7009F20881DCA29881DCA290130A202FC
:10038600031CA3032208B6002308B7009F20803071
:10039600F000803021067002031DD3292008003C9E
:1003A6000318E22921082306031DDB29220820065B
:1003B600031DE2292008B4002108B500F3208A298C
:0203C600E32929
:02400E004A2F37
:00000001FF
