:020000000328D3
:100006008316031386018801831288118601881DD1
:100016005A2806140330FB000830FC007730FD0038
:10002600FD0B1328FC0B1328FB0B132806100330BB
:10003600FB000830FC007730FD00FD0B2028FC0B90
:100046002028FB0B202886140330FB000830FC0018
:100056007730FD00FD0B2D28FC0B2D28FB0B2D28E2
:1000660086100330FB000830FC007730FD00FD0BE6
:100076003A28FC0B3A28FB0B3A2806150330FB00FE
:100086000830FC007730FD00FD0B4728FC0B4728A5
:10009600FB0B472806110330FB000830FC007730C5
:1000A600FD00FD0B5428FC0B5428FB0B54280A2892
:0200B6005B28C5
:02400E004A2F37
:00000001FF
