:02000000E229F3
:0E000600213083120313FD00FD0B07280800B4
:06001400000000000800DE
:10001A000F3083120313FC004730FD00FD0B132839
:0A002A00FC0B132800000000080082
:1000340083160313A31B21288312861223288312F9
:1000440086168316231B2928831206122B28831253
:1000540006168316A31A31288312861133288312B5
:1000640086158316231A3928831206113B28831216
:1000740006156D183F2806144028061086140A2019
:1000840086108316A3194928831286124B288312DB
:1000940086168316231951288312061253288312B5
:1000A40006168316A3185928831286115B28831217
:1000B4008615831623186128831206116328831278
:1000C40006156D18672806146828061086140A2079
:0E00D40086106D1C6F280D2070280320080078
:0E00E2008312031362088A006108820008007E
:1000F000831203136D106F088316A3001A206D146A
:020100000800F5
:100102009328803083160313A000A628C030A000D5
:10011200A6289430A000A628D430A000A6288030BB
:10012200A000A628831603132008013A0319822887
:100132002008023A031987282008033A03198A285B
:100142002008043A03198D2890282103F000200882
:10015200F0077008A0007008A3001A206D10EE01CD
:100162006E0883162207840000080319C32883122D
:100172006E0883162207840000088312EF0078209D
:0A018200EE0AB12883126D14080084
:10018C0071208A110A128000840AE10A0319E20A1A
:08019C00F003031DC628080052
:1001A4008316031386100610061186110612861292
:1001B40083128610061086120612861106110D206F
:1001C4000D200D208615061586140A2086100D2094
:1001D40086140A2086100D2086140A2086100D200D
:1001E400061186140A2086100D2086140A20861013
:1001F4008611861686140A2086100D20861206158E
:1002040086140A208610061186140A2086100D20F2
:1002140086140A208610061586140A2086100D20DE
:10022400061186140A2086108616061686150615EB
:0C02340086140A2086100D206D140800AE
:1002400083120313F30108307302031859290818A5
:100250002A2927291330FD00FD0B2C29000000005E
:10026000081844297308073CF0007008F1000130B9
:10027000F000710803194029F00D7010FF3E3A2973
:10028000F0097008F20557297308073CF000700860
:10029000F1000130F000710803195229F00D7010BF
:1002A000FF3E4C297008F204081C57295429F30A10
:0802B00023297208F000080088
:1002B80083120313F801F9011030FC00710DF80DD9
:1002C800F90D7408F8027508031C750FF902031874
:1002D80074297408F80775080318750FF9070310CF
:0A02E800F00DF10DFC0B6229080077
:1002F2008B29803083160313A0009E29C030A000F2
:100302009E299430A0009E29D430A0009E298030DE
:10031200A0009E29831603132008013A03197A29A3
:100322002008023A03197F292008033A0319822977
:100332002008043A0319852988292103F00020089E
:10034200F0077008A00083126D1470088316A300D2
:100352001A206D1083162208A3001A206D140800BB
:1003620083120313E0011A30FD00FD0BB6290000D1
:100372000818C8293530FD00FD0BBD29081CC3290A
:100382000130E0001A30FD00FD0BC5290000080015
:10039200831603130810831208102F30FC00BF309D
:1003A200FD00FD0BD229FC0BD2290000000008142D
:1003B2001330FD00FD0BDB2900000000831608143A
:0203C200080031
:1003C40034238316031387018312870183160813CA
:1003D400881783128801D22001308316A3001A20C3
:1003E4000C308316A3001A20D2200C308316A300ED
:1003F4001A2001308316A3001A20C921B1216008F4
:10040400013A031DC42A20217008E8002021700845
:10041400E70020217008E90020217008EC00202169
:100424007008EA00EB0167086807F000F10103189F
:10043400F10A6908F0070318F10A6C08F0070318B9
:10044400F10AFF307005F2007108F3000030F30583
:100454006B087306031D302A72086A06031DB32A4B
:100464006908E500E6016808E300E4010130831649
:10047400A0000230A1003030A20081200230831697
:10048400A0000230A1003830A20081200130831680
:10049400A0000C30A1000A30F4000030F5008312F3
:1004A4006508F0006608F1005C210A30F4000030B1
:1004B400F5005C217808F0007908F1007008303EFE
:1004C4008316A200792101308316A0000D30A1000B
:1004D4000A30F4000030F50083126508F000660865
:1004E400F1005C217808F0007908F1007008303ED2
:1004F4008316A200792102308316A0000C30A100DB
:100504000A30F4000030F50083126308F000640838
:10051400F1005C210A30F4000030F5005C21780819
:10052400F0007908F1007008303E8316A2007921AA
:1005340002308316A0000D30A1000A30F400003010
:10054400F50083126308F0006408F1005C21780868
:10055400F0007908F1007008303E8316A20079217A
:10056400C32A0C308316A3001A2001308316A3007B
:100574001A2001308316A0000130A1005030A200DF
:100584008120D42A01308316A0000330A100443016
:10059400A200812002308316A0000130A100203087
:1005A400A2008120F101881BF10A01307102031CB1
:1005B400DD2A0817DE2A08130B30FB002630FC0066
:1005C4005D30FD00FD0BE42AFC0BE42AFB0BE42A5E
:0805D40000000000FF29ED2AE0
:1006680020308400403083120313F000F330E1009F
:080678000230E200C620080078
:1005E600663472346F346D34203474346834653450
:1005F6002034733465346E3473346F34723400349B
:10060600543465346D3470343A3420344334003411
:10061600483475346D3469346434693474347934E7
:080626003A342034253400347D
:10062E004E346F34203472346534733470346F3416
:08063E006E347334653400349E
:1006460043346834653463346B342034733475341E
:100656006D3420346534723472346F34723400343D
:02400E004A2F37
:00000001FF
